{
    "contractName": "CepTokenSale",
    "abi": [
        {
            "inputs": [
                {
                    "internalType": "contract CepToken",
                    "name": "_tokenContract",
                    "type": "address"
                },
                {
                    "internalType": "uint256",
                    "name": "_tokenPrice",
                    "type": "uint256"
                }
            ],
            "stateMutability": "nonpayable",
            "type": "constructor"
        },
        {
            "anonymous": false,
            "inputs": [
                {
                    "indexed": false,
                    "internalType": "address",
                    "name": "_buyer",
                    "type": "address"
                },
                {
                    "indexed": false,
                    "internalType": "uint256",
                    "name": "_amount",
                    "type": "uint256"
                }
            ],
            "name": "Sell",
            "type": "event"
        },
        {
            "inputs": [
                {
                    "internalType": "uint256",
                    "name": "_numberOfTokens",
                    "type": "uint256"
                }
            ],
            "name": "buyTokens",
            "outputs": [],
            "stateMutability": "payable",
            "type": "function"
        },
        {
            "inputs": [],
            "name": "cepTokenContract",
            "outputs": [
                {
                    "internalType": "contract CepToken",
                    "name": "",
                    "type": "address"
                }
            ],
            "stateMutability": "view",
            "type": "function"
        },
        {
            "inputs": [],
            "name": "endSale",
            "outputs": [],
            "stateMutability": "nonpayable",
            "type": "function"
        },
        {
            "inputs": [],
            "name": "tokenPrice",
            "outputs": [
                {
                    "internalType": "uint256",
                    "name": "",
                    "type": "uint256"
                }
            ],
            "stateMutability": "view",
            "type": "function"
        },
        {
            "inputs": [],
            "name": "tokenSold",
            "outputs": [
                {
                    "internalType": "uint256",
                    "name": "",
                    "type": "uint256"
                }
            ],
            "stateMutability": "view",
            "type": "function"
        }
    ],
    "bytecode": "608060405234801561001057600080fd5b5060405161053b38038061053b83398101604081905261002f91610066565b60008054336001600160a01b031991821617909155600280549091166001600160a01b0393909316929092179091556001556100a0565b6000806040838503121561007957600080fd5b82516001600160a01b038116811461009057600080fd5b6020939093015192949293505050565b61048c806100af6000396000f3fe60806040526004361061004a5760003560e01c80633610724e1461004f578063380d831b14610064578063519ee19e146100795780637ff9b596146100a2578063da2e31eb146100b8575b600080fd5b61006261005d36600461038c565b6100f0565b005b34801561007057600080fd5b5061006261024f565b34801561008557600080fd5b5061008f60035481565b6040519081526020015b60405180910390f35b3480156100ae57600080fd5b5061008f60015481565b3480156100c457600080fd5b506002546100d8906001600160a01b031681565b6040516001600160a01b039091168152602001610099565b6100fc81600154610359565b341461010757600080fd5b6002546040516370a0823160e01b815230600482015282916001600160a01b0316906370a0823190602401602060405180830381865afa15801561014f573d6000803e3d6000fd5b505050506040513d601f19601f8201168201806040525081019061017391906103a5565b101561017e57600080fd5b60025460405163a9059cbb60e01b8152336004820152602481018390526001600160a01b039091169063a9059cbb906044016020604051808303816000875af11580156101cf573d6000803e3d6000fd5b505050506040513d601f19601f820116820180604052508101906101f391906103be565b6101fc57600080fd5b806003600082825461020e91906103fd565b909155505060408051338152602081018390527f5e5e995ce3133561afceaa51a9a154d5db228cd7525d34df5185582c18d3df09910160405180910390a150565b6000546001600160a01b0316331461026657600080fd5b6002546000546040516370a0823160e01b81523060048201526001600160a01b039283169263a9059cbb92169083906370a0823190602401602060405180830381865afa1580156102bb573d6000803e3d6000fd5b505050506040513d601f19601f820116820180604052508101906102df91906103a5565b6040516001600160e01b031960e085901b1681526001600160a01b03909216600483015260248201526044016020604051808303816000875af115801561032a573d6000803e3d6000fd5b505050506040513d601f19601f8201168201806040525081019061034e91906103be565b61035757600080fd5b565b600081158061037d5750828261036f8183610415565b925061037b9083610434565b145b61038657600080fd5b92915050565b60006020828403121561039e57600080fd5b5035919050565b6000602082840312156103b757600080fd5b5051919050565b6000602082840312156103d057600080fd5b815180151581146103e057600080fd5b9392505050565b634e487b7160e01b600052601160045260246000fd5b60008219821115610410576104106103e7565b500190565b600081600019048311821515161561042f5761042f6103e7565b500290565b60008261045157634e487b7160e01b600052601260045260246000fd5b50049056fea2646970667358221220cffbe0c31a30e8070d25c6c3f0598addf6e9c5bd51a96151ae552b50affbe83564736f6c634300080e0033",
    "sourcePath": "c:/Users/tbloc/Desktop/cep_token/contracts/CepTokenSale.sol",
    "compiler": {
        "name": "solc",
        "version": "0.8.14+commit.80d49f37"
    },
    "functionHashes": {
        "buyTokens(uint256)": "3610724e",
        "cepTokenContract()": "da2e31eb",
        "endSale()": "380d831b",
        "tokenPrice()": "7ff9b596",
        "tokenSold()": "519ee19e"
    },
    "gasEstimates": {
        "creation": {
            "codeDepositCost": "232800",
            "executionCost": "infinite",
            "totalCost": "infinite"
        },
        "external": {
            "buyTokens(uint256)": "infinite",
            "cepTokenContract()": "2403",
            "endSale()": "infinite",
            "tokenPrice()": "2328",
            "tokenSold()": "2306"
        },
        "internal": {
            "multiply(uint256,uint256)": "227"
        }
    }
}