{
  "contractName": "CepTokenSale",
  "abi": [
    {
      "inputs": [
        {
          "internalType": "contract CepToken",
          "name": "_tokenContract",
          "type": "address"
        },
        {
          "internalType": "uint256",
          "name": "_tokenPrice",
          "type": "uint256"
        }
      ],
      "stateMutability": "nonpayable",
      "type": "constructor"
    },
    {
      "anonymous": false,
      "inputs": [
        {
          "indexed": false,
          "internalType": "address",
          "name": "_buyer",
          "type": "address"
        },
        {
          "indexed": false,
          "internalType": "uint256",
          "name": "_amount",
          "type": "uint256"
        }
      ],
      "name": "Sell",
      "type": "event"
    },
    {
      "inputs": [],
      "name": "cepTokenContract",
      "outputs": [
        {
          "internalType": "contract CepToken",
          "name": "",
          "type": "address"
        }
      ],
      "stateMutability": "view",
      "type": "function",
      "constant": true
    },
    {
      "inputs": [],
      "name": "tokenPrice",
      "outputs": [
        {
          "internalType": "uint256",
          "name": "",
          "type": "uint256"
        }
      ],
      "stateMutability": "view",
      "type": "function",
      "constant": true
    },
    {
      "inputs": [],
      "name": "tokenSold",
      "outputs": [
        {
          "internalType": "uint256",
          "name": "",
          "type": "uint256"
        }
      ],
      "stateMutability": "view",
      "type": "function",
      "constant": true
    },
    {
      "inputs": [
        {
          "internalType": "uint256",
          "name": "_numberOfTokens",
          "type": "uint256"
        }
      ],
      "name": "buyTokens",
      "outputs": [],
      "stateMutability": "payable",
      "type": "function",
      "payable": true
    },
    {
      "inputs": [],
      "name": "endSale",
      "outputs": [],
      "stateMutability": "nonpayable",
      "type": "function"
    }
  ],
  "bytecode": "0x608060405234801561001057600080fd5b50604051610a4f380380610a4f8339818101604052810190610032919061016c565b336000806101000a81548173ffffffffffffffffffffffffffffffffffffffff021916908373ffffffffffffffffffffffffffffffffffffffff16021790555081600260006101000a81548173ffffffffffffffffffffffffffffffffffffffff021916908373ffffffffffffffffffffffffffffffffffffffff1602179055508060018190555050506101ac565b600080fd5b600073ffffffffffffffffffffffffffffffffffffffff82169050919050565b60006100f1826100c6565b9050919050565b6000610103826100e6565b9050919050565b610113816100f8565b811461011e57600080fd5b50565b6000815190506101308161010a565b92915050565b6000819050919050565b61014981610136565b811461015457600080fd5b50565b60008151905061016681610140565b92915050565b60008060408385031215610183576101826100c1565b5b600061019185828601610121565b92505060206101a285828601610157565b9150509250929050565b610894806101bb6000396000f3fe60806040526004361061004a5760003560e01c80633610724e1461004f578063380d831b1461006b578063519ee19e146100825780637ff9b596146100ad578063da2e31eb146100d8575b600080fd5b61006960048036038101906100649190610522565b610103565b005b34801561007757600080fd5b506100806102c0565b005b34801561008e57600080fd5b5061009761047e565b6040516100a4919061055e565b60405180910390f35b3480156100b957600080fd5b506100c2610484565b6040516100cf919061055e565b60405180910390f35b3480156100e457600080fd5b506100ed61048a565b6040516100fa91906105f8565b60405180910390f35b61010f816001546104b0565b341461011a57600080fd5b80600260009054906101000a900473ffffffffffffffffffffffffffffffffffffffff1673ffffffffffffffffffffffffffffffffffffffff166370a08231306040518263ffffffff1660e01b81526004016101769190610634565b602060405180830381865afa158015610193573d6000803e3d6000fd5b505050506040513d601f19601f820116820180604052508101906101b79190610664565b10156101c257600080fd5b600260009054906101000a900473ffffffffffffffffffffffffffffffffffffffff1673ffffffffffffffffffffffffffffffffffffffff1663a9059cbb33836040518363ffffffff1660e01b815260040161021f929190610691565b6020604051808303816000875af115801561023e573d6000803e3d6000fd5b505050506040513d601f19601f8201168201806040525081019061026291906106f2565b61026b57600080fd5b806003600082825461027d919061074e565b925050819055507f5e5e995ce3133561afceaa51a9a154d5db228cd7525d34df5185582c18d3df0933826040516102b5929190610691565b60405180910390a150565b60008054906101000a900473ffffffffffffffffffffffffffffffffffffffff1673ffffffffffffffffffffffffffffffffffffffff163373ffffffffffffffffffffffffffffffffffffffff161461031857600080fd5b600260009054906101000a900473ffffffffffffffffffffffffffffffffffffffff1673ffffffffffffffffffffffffffffffffffffffff1663a9059cbb60008054906101000a900473ffffffffffffffffffffffffffffffffffffffff16600260009054906101000a900473ffffffffffffffffffffffffffffffffffffffff1673ffffffffffffffffffffffffffffffffffffffff166370a08231306040518263ffffffff1660e01b81526004016103d29190610634565b602060405180830381865afa1580156103ef573d6000803e3d6000fd5b505050506040513d601f19601f820116820180604052508101906104139190610664565b6040518363ffffffff1660e01b8152600401610430929190610691565b6020604051808303816000875af115801561044f573d6000803e3d6000fd5b505050506040513d601f19601f8201168201806040525081019061047391906106f2565b61047c57600080fd5b565b60035481565b60015481565b600260009054906101000a900473ffffffffffffffffffffffffffffffffffffffff1681565b6000808214806104d85750828283856104c991906107a4565b9250826104d6919061082d565b145b6104e157600080fd5b92915050565b600080fd5b6000819050919050565b6104ff816104ec565b811461050a57600080fd5b50565b60008135905061051c816104f6565b92915050565b600060208284031215610538576105376104e7565b5b60006105468482850161050d565b91505092915050565b610558816104ec565b82525050565b6000602082019050610573600083018461054f565b92915050565b600073ffffffffffffffffffffffffffffffffffffffff82169050919050565b6000819050919050565b60006105be6105b96105b484610579565b610599565b610579565b9050919050565b60006105d0826105a3565b9050919050565b60006105e2826105c5565b9050919050565b6105f2816105d7565b82525050565b600060208201905061060d60008301846105e9565b92915050565b600061061e82610579565b9050919050565b61062e81610613565b82525050565b60006020820190506106496000830184610625565b92915050565b60008151905061065e816104f6565b92915050565b60006020828403121561067a576106796104e7565b5b60006106888482850161064f565b91505092915050565b60006040820190506106a66000830185610625565b6106b3602083018461054f565b9392505050565b60008115159050919050565b6106cf816106ba565b81146106da57600080fd5b50565b6000815190506106ec816106c6565b92915050565b600060208284031215610708576107076104e7565b5b6000610716848285016106dd565b91505092915050565b7f4e487b7100000000000000000000000000000000000000000000000000000000600052601160045260246000fd5b6000610759826104ec565b9150610764836104ec565b9250827fffffffffffffffffffffffffffffffffffffffffffffffffffffffffffffffff038211156107995761079861071f565b5b828201905092915050565b60006107af826104ec565b91506107ba836104ec565b9250817fffffffffffffffffffffffffffffffffffffffffffffffffffffffffffffffff04831182151516156107f3576107f261071f565b5b828202905092915050565b7f4e487b7100000000000000000000000000000000000000000000000000000000600052601260045260246000fd5b6000610838826104ec565b9150610843836104ec565b925082610853576108526107fe565b5b82820490509291505056fea2646970667358221220a956fc9737c188201c1bfbc46243bc21c52306866fe258c6756cb1165f9a134664736f6c634300080e0033",
  "immutableReferences": {},
  "source": "// SPDX-License-Identifier: MIT\npragma solidity >=0.4.22 <0.9.0;\nimport \"./CepToken.sol\";\n\ncontract CepTokenSale {\n    address adminAddress;\n    uint256 public tokenPrice;\n    CepToken public cepTokenContract;\n    uint256 public tokenSold;\n\n    event Sell(address _buyer, uint256 _amount);\n\n    constructor(CepToken _tokenContract, uint256 _tokenPrice) {\n        adminAddress = msg.sender;\n        cepTokenContract = _tokenContract;\n        tokenPrice = _tokenPrice;\n    }\n\n    function multiply(uint256 x, uint256 y) internal pure returns (uint256 z) {\n        require(y == 0 || (z = x * y) / y == x); // TODO: ?\n    }\n\n    function buyTokens(uint256 _numberOfTokens) public payable {\n        require(msg.value == multiply(_numberOfTokens, tokenPrice)); // check ETH format also\n        require(cepTokenContract.balanceOf(address(this)) >= _numberOfTokens);\n        require(cepTokenContract.transfer(msg.sender, _numberOfTokens));\n\n        tokenSold += _numberOfTokens;\n\n        emit Sell(msg.sender, _numberOfTokens);\n    }\n\n    function endSale() public {\n        require(msg.sender == adminAddress);\n        require(\n            cepTokenContract.transfer(\n                adminAddress,\n                cepTokenContract.balanceOf(address(this))\n            )\n        );\n\n        // address payable addr = payable(address(this));\n        // selfdestruct(addr);\n    }\n}\n",
  "sourcePath": "C:\\Users\\tbloc\\Desktop\\cep_token\\TokenSale\\contracts\\CepTokenSale.sol",
  "compiler": {
    "name": "solc",
    "version": "0.8.14+commit.80d49f37.Emscripten.clang"
  },
  "schemaVersion": "3.4.7",
  "updatedAt": "2022-06-03T04:03:22.396Z",
  "networkType": "ethereum",
  "devdoc": {
    "kind": "dev",
    "methods": {},
    "version": 1
  },
  "userdoc": {
    "kind": "user",
    "methods": {},
    "version": 1
  }
}