{
  "contractName": "CepToken",
  "abi": [
    {
      "inputs": [
        {
          "internalType": "uint256",
          "name": "_initialAmount",
          "type": "uint256"
        }
      ],
      "stateMutability": "nonpayable",
      "type": "constructor"
    },
    {
      "anonymous": false,
      "inputs": [
        {
          "indexed": true,
          "internalType": "address",
          "name": "_owner",
          "type": "address"
        },
        {
          "indexed": true,
          "internalType": "address",
          "name": "_spender",
          "type": "address"
        },
        {
          "indexed": false,
          "internalType": "uint256",
          "name": "_value",
          "type": "uint256"
        }
      ],
      "name": "Approval",
      "type": "event"
    },
    {
      "anonymous": false,
      "inputs": [
        {
          "indexed": true,
          "internalType": "address",
          "name": "_from",
          "type": "address"
        },
        {
          "indexed": true,
          "internalType": "address",
          "name": "_to",
          "type": "address"
        },
        {
          "indexed": false,
          "internalType": "uint256",
          "name": "_value",
          "type": "uint256"
        }
      ],
      "name": "Transfer",
      "type": "event"
    },
    {
      "inputs": [
        {
          "internalType": "address",
          "name": "",
          "type": "address"
        },
        {
          "internalType": "address",
          "name": "",
          "type": "address"
        }
      ],
      "name": "allowance",
      "outputs": [
        {
          "internalType": "uint256",
          "name": "",
          "type": "uint256"
        }
      ],
      "stateMutability": "view",
      "type": "function",
      "constant": true
    },
    {
      "inputs": [
        {
          "internalType": "address",
          "name": "",
          "type": "address"
        }
      ],
      "name": "balances",
      "outputs": [
        {
          "internalType": "uint256",
          "name": "",
          "type": "uint256"
        }
      ],
      "stateMutability": "view",
      "type": "function",
      "constant": true
    },
    {
      "inputs": [],
      "name": "decimals",
      "outputs": [
        {
          "internalType": "uint8",
          "name": "",
          "type": "uint8"
        }
      ],
      "stateMutability": "view",
      "type": "function",
      "constant": true
    },
    {
      "inputs": [],
      "name": "minter",
      "outputs": [
        {
          "internalType": "address",
          "name": "",
          "type": "address"
        }
      ],
      "stateMutability": "view",
      "type": "function",
      "constant": true
    },
    {
      "inputs": [],
      "name": "name",
      "outputs": [
        {
          "internalType": "string",
          "name": "",
          "type": "string"
        }
      ],
      "stateMutability": "view",
      "type": "function",
      "constant": true
    },
    {
      "inputs": [],
      "name": "standard",
      "outputs": [
        {
          "internalType": "string",
          "name": "",
          "type": "string"
        }
      ],
      "stateMutability": "view",
      "type": "function",
      "constant": true
    },
    {
      "inputs": [],
      "name": "symbol",
      "outputs": [
        {
          "internalType": "string",
          "name": "",
          "type": "string"
        }
      ],
      "stateMutability": "view",
      "type": "function",
      "constant": true
    },
    {
      "inputs": [],
      "name": "totalSupply",
      "outputs": [
        {
          "internalType": "uint256",
          "name": "",
          "type": "uint256"
        }
      ],
      "stateMutability": "view",
      "type": "function",
      "constant": true
    },
    {
      "inputs": [
        {
          "internalType": "address",
          "name": "_owner",
          "type": "address"
        }
      ],
      "name": "balanceOf",
      "outputs": [
        {
          "internalType": "uint256",
          "name": "balance",
          "type": "uint256"
        }
      ],
      "stateMutability": "view",
      "type": "function",
      "constant": true
    },
    {
      "inputs": [
        {
          "internalType": "address",
          "name": "_to",
          "type": "address"
        },
        {
          "internalType": "uint256",
          "name": "_value",
          "type": "uint256"
        }
      ],
      "name": "transfer",
      "outputs": [
        {
          "internalType": "bool",
          "name": "success",
          "type": "bool"
        }
      ],
      "stateMutability": "nonpayable",
      "type": "function"
    },
    {
      "inputs": [
        {
          "internalType": "address",
          "name": "_spender",
          "type": "address"
        },
        {
          "internalType": "uint256",
          "name": "_value",
          "type": "uint256"
        }
      ],
      "name": "approve",
      "outputs": [
        {
          "internalType": "bool",
          "name": "success",
          "type": "bool"
        }
      ],
      "stateMutability": "nonpayable",
      "type": "function"
    },
    {
      "inputs": [
        {
          "internalType": "address",
          "name": "_from",
          "type": "address"
        },
        {
          "internalType": "address",
          "name": "_to",
          "type": "address"
        },
        {
          "internalType": "uint256",
          "name": "_value",
          "type": "uint256"
        }
      ],
      "name": "transferFrom",
      "outputs": [
        {
          "internalType": "bool",
          "name": "success",
          "type": "bool"
        }
      ],
      "stateMutability": "nonpayable",
      "type": "function"
    }
  ],
  "bytecode": "0x60806040526040518060400160405280600881526020017f43455020436f696e0000000000000000000000000000000000000000000000008152506002908051906020019062000051929190620001f2565b506040518060400160405280600381526020017f4345500000000000000000000000000000000000000000000000000000000000815250600390805190602001906200009f929190620001f2565b506040518060400160405280600e81526020017f43657020546f6b656e2076312e3000000000000000000000000000000000000081525060049080519060200190620000ed929190620001f2565b506012600560006101000a81548160ff021916908360ff1602179055503480156200011757600080fd5b50604051620011b9380380620011b983398181016040528101906200013d9190620002e2565b33600160006101000a81548173ffffffffffffffffffffffffffffffffffffffff021916908373ffffffffffffffffffffffffffffffffffffffff1602179055508060066000600160009054906101000a900473ffffffffffffffffffffffffffffffffffffffff1673ffffffffffffffffffffffffffffffffffffffff1673ffffffffffffffffffffffffffffffffffffffff16815260200190815260200160002081905550806000819055505062000378565b828054620002009062000343565b90600052602060002090601f01602090048101928262000224576000855562000270565b82601f106200023f57805160ff191683800117855562000270565b8280016001018555821562000270579182015b828111156200026f57825182559160200191906001019062000252565b5b5090506200027f919062000283565b5090565b5b808211156200029e57600081600090555060010162000284565b5090565b600080fd5b6000819050919050565b620002bc81620002a7565b8114620002c857600080fd5b50565b600081519050620002dc81620002b1565b92915050565b600060208284031215620002fb57620002fa620002a2565b5b60006200030b84828501620002cb565b91505092915050565b7f4e487b7100000000000000000000000000000000000000000000000000000000600052602260045260246000fd5b600060028204905060018216806200035c57607f821691505b60208210810362000372576200037162000314565b5b50919050565b610e3180620003886000396000f3fe608060405234801561001057600080fd5b50600436106100b45760003560e01c8063313ce56711610071578063313ce567146101a35780635a3b7e42146101c157806370a08231146101df57806395d89b411461020f578063a9059cbb1461022d578063dd62ed3e1461025d576100b4565b806306fdde03146100b957806307546172146100d7578063095ea7b3146100f557806318160ddd1461012557806323b872dd1461014357806327e235e314610173575b600080fd5b6100c161028d565b6040516100ce9190610a66565b60405180910390f35b6100df61031b565b6040516100ec9190610ac9565b60405180910390f35b61010f600480360381019061010a9190610b4b565b610341565b60405161011c9190610ba6565b60405180910390f35b61012d610455565b60405161013a9190610bd0565b60405180910390f35b61015d60048036038101906101589190610beb565b61045b565b60405161016a9190610ba6565b60405180910390f35b61018d60048036038101906101889190610c3e565b6106af565b60405161019a9190610bd0565b60405180910390f35b6101ab6106c7565b6040516101b89190610c87565b60405180910390f35b6101c96106da565b6040516101d69190610a66565b60405180910390f35b6101f960048036038101906101f49190610c3e565b610768565b6040516102069190610bd0565b60405180910390f35b6102176107b1565b6040516102249190610a66565b60405180910390f35b61024760048036038101906102429190610b4b565b61083f565b6040516102549190610ba6565b60405180910390f35b61027760048036038101906102729190610ca2565b6109a8565b6040516102849190610bd0565b60405180910390f35b6002805461029a90610d11565b80601f01602080910402602001604051908101604052809291908181526020018280546102c690610d11565b80156103135780601f106102e857610100808354040283529160200191610313565b820191906000526020600020905b8154815290600101906020018083116102f657829003601f168201915b505050505081565b600160009054906101000a900473ffffffffffffffffffffffffffffffffffffffff1681565b600081600760003373ffffffffffffffffffffffffffffffffffffffff1673ffffffffffffffffffffffffffffffffffffffff16815260200190815260200160002060008573ffffffffffffffffffffffffffffffffffffffff1673ffffffffffffffffffffffffffffffffffffffff168152602001908152602001600020819055508273ffffffffffffffffffffffffffffffffffffffff16600160009054906101000a900473ffffffffffffffffffffffffffffffffffffffff1673ffffffffffffffffffffffffffffffffffffffff167f8c5be1e5ebec7d5bd14f71427d1e84f3dd0314c0f7b2291e5b200ac8c7c3b925846040516104439190610bd0565b60405180910390a36001905092915050565b60005481565b6000803390508261046b86610768565b101561047657600080fd5b82600760008773ffffffffffffffffffffffffffffffffffffffff1673ffffffffffffffffffffffffffffffffffffffff16815260200190815260200160002060008373ffffffffffffffffffffffffffffffffffffffff1673ffffffffffffffffffffffffffffffffffffffff1681526020019081526020016000205410156104ff57600080fd5b82600660008773ffffffffffffffffffffffffffffffffffffffff1673ffffffffffffffffffffffffffffffffffffffff168152602001908152602001600020600082825461054e9190610d71565b9250508190555082600660008673ffffffffffffffffffffffffffffffffffffffff1673ffffffffffffffffffffffffffffffffffffffff16815260200190815260200160002060008282546105a49190610da5565b9250508190555082600760008773ffffffffffffffffffffffffffffffffffffffff1673ffffffffffffffffffffffffffffffffffffffff16815260200190815260200160002060008373ffffffffffffffffffffffffffffffffffffffff1673ffffffffffffffffffffffffffffffffffffffff16815260200190815260200160002060008282546106379190610d71565b925050819055508373ffffffffffffffffffffffffffffffffffffffff168573ffffffffffffffffffffffffffffffffffffffff167fddf252ad1be2c89b69c2b068fc378daa952ba7f163c4a11628f55a4df523b3ef8560405161069b9190610bd0565b60405180910390a360019150509392505050565b60066020528060005260406000206000915090505481565b600560009054906101000a900460ff1681565b600480546106e790610d11565b80601f016020809104026020016040519081016040528092919081815260200182805461071390610d11565b80156107605780601f1061073557610100808354040283529160200191610760565b820191906000526020600020905b81548152906001019060200180831161074357829003601f168201915b505050505081565b6000600660008373ffffffffffffffffffffffffffffffffffffffff1673ffffffffffffffffffffffffffffffffffffffff168152602001908152602001600020549050919050565b600380546107be90610d11565b80601f01602080910402602001604051908101604052809291908181526020018280546107ea90610d11565b80156108375780601f1061080c57610100808354040283529160200191610837565b820191906000526020600020905b81548152906001019060200180831161081a57829003601f168201915b505050505081565b600081600660003373ffffffffffffffffffffffffffffffffffffffff1673ffffffffffffffffffffffffffffffffffffffff16815260200190815260200160002054101561088d57600080fd5b81600660003373ffffffffffffffffffffffffffffffffffffffff1673ffffffffffffffffffffffffffffffffffffffff16815260200190815260200160002060008282546108dc9190610d71565b9250508190555081600660008573ffffffffffffffffffffffffffffffffffffffff1673ffffffffffffffffffffffffffffffffffffffff16815260200190815260200160002060008282546109329190610da5565b925050819055508273ffffffffffffffffffffffffffffffffffffffff163373ffffffffffffffffffffffffffffffffffffffff167fddf252ad1be2c89b69c2b068fc378daa952ba7f163c4a11628f55a4df523b3ef846040516109969190610bd0565b60405180910390a36001905092915050565b6007602052816000526040600020602052806000526040600020600091509150505481565b600081519050919050565b600082825260208201905092915050565b60005b83811015610a075780820151818401526020810190506109ec565b83811115610a16576000848401525b50505050565b6000601f19601f8301169050919050565b6000610a38826109cd565b610a4281856109d8565b9350610a528185602086016109e9565b610a5b81610a1c565b840191505092915050565b60006020820190508181036000830152610a808184610a2d565b905092915050565b600073ffffffffffffffffffffffffffffffffffffffff82169050919050565b6000610ab382610a88565b9050919050565b610ac381610aa8565b82525050565b6000602082019050610ade6000830184610aba565b92915050565b600080fd5b610af281610aa8565b8114610afd57600080fd5b50565b600081359050610b0f81610ae9565b92915050565b6000819050919050565b610b2881610b15565b8114610b3357600080fd5b50565b600081359050610b4581610b1f565b92915050565b60008060408385031215610b6257610b61610ae4565b5b6000610b7085828601610b00565b9250506020610b8185828601610b36565b9150509250929050565b60008115159050919050565b610ba081610b8b565b82525050565b6000602082019050610bbb6000830184610b97565b92915050565b610bca81610b15565b82525050565b6000602082019050610be56000830184610bc1565b92915050565b600080600060608486031215610c0457610c03610ae4565b5b6000610c1286828701610b00565b9350506020610c2386828701610b00565b9250506040610c3486828701610b36565b9150509250925092565b600060208284031215610c5457610c53610ae4565b5b6000610c6284828501610b00565b91505092915050565b600060ff82169050919050565b610c8181610c6b565b82525050565b6000602082019050610c9c6000830184610c78565b92915050565b60008060408385031215610cb957610cb8610ae4565b5b6000610cc785828601610b00565b9250506020610cd885828601610b00565b9150509250929050565b7f4e487b7100000000000000000000000000000000000000000000000000000000600052602260045260246000fd5b60006002820490506001821680610d2957607f821691505b602082108103610d3c57610d3b610ce2565b5b50919050565b7f4e487b7100000000000000000000000000000000000000000000000000000000600052601160045260246000fd5b6000610d7c82610b15565b9150610d8783610b15565b925082821015610d9a57610d99610d42565b5b828203905092915050565b6000610db082610b15565b9150610dbb83610b15565b9250827fffffffffffffffffffffffffffffffffffffffffffffffffffffffffffffffff03821115610df057610def610d42565b5b82820190509291505056fea26469706673582212204552f39810a89cd66b4af2098203165e805ee8e00c6716dc2fac4215eb5d899e64736f6c634300080e0033",
  "immutableReferences": {},
  "source": "// SPDX-License-Identifier: MIT\r\npragma solidity >=0.4.22 <0.9.0;\r\nimport \"./EIP20Interface.sol\";\r\n\r\ncontract CepToken is EIP20Interface {\r\n    uint256 public totalSupply;\r\n    address public minter;\r\n\r\n    string public name = \"CEP Coin\";\r\n    string public symbol = \"CEP\";\r\n    string public standard = \"Cep Token v1.0\";\r\n    uint8 public decimals = 18; // instead of floating point\r\n\r\n    mapping(address => uint256) public balances;\r\n    mapping(address => mapping(address => uint256)) public override allowance;\r\n\r\n    constructor(uint256 _initialAmount) {\r\n        minter = msg.sender;\r\n        balances[minter] = _initialAmount; // who deployed the contract\r\n        totalSupply = _initialAmount;\r\n    }\r\n\r\n    function balanceOf(address _owner)\r\n        public\r\n        view\r\n        override\r\n        returns (uint256 balance)\r\n    {\r\n        return balances[_owner];\r\n    }\r\n\r\n    function transfer(address _to, uint256 _value)\r\n        public\r\n        override\r\n        returns (bool success)\r\n    {\r\n        require(balances[msg.sender] >= _value);\r\n\r\n        balances[msg.sender] -= _value;\r\n        balances[_to] += _value;\r\n\r\n        emit Transfer(msg.sender, _to, _value);\r\n\r\n        return true;\r\n    }\r\n\r\n    function approve(address _spender, uint256 _value)\r\n        public\r\n        override\r\n        returns (bool success)\r\n    {\r\n        //allowance\r\n        allowance[msg.sender][_spender] = _value;\r\n\r\n        emit Approval(minter, _spender, _value);\r\n\r\n        return true;\r\n    }\r\n\r\n    // Delegated Transfer\r\n    function transferFrom(\r\n        address _from,\r\n        address _to,\r\n        uint256 _value\r\n    ) public override returns (bool success) {\r\n        address spender = msg.sender;\r\n\r\n        require(balanceOf(_from) >= _value);\r\n        require(allowance[_from][spender] >= _value);\r\n\r\n        balances[_from] -= _value;\r\n        balances[_to] += _value;\r\n\r\n        allowance[_from][spender] -= _value;\r\n\r\n        emit Transfer(_from, _to, _value);\r\n\r\n        return true;\r\n    }\r\n}\r\n",
  "sourcePath": "C:\\Users\\tbloc\\Desktop\\cep_token\\TokenSale\\contracts\\CepToken.sol",
  "compiler": {
    "name": "solc",
    "version": "0.8.14+commit.80d49f37.Emscripten.clang"
  },
  "schemaVersion": "3.4.7",
  "updatedAt": "2022-06-03T04:03:22.390Z",
  "networkType": "ethereum",
  "devdoc": {
    "kind": "dev",
    "methods": {},
    "version": 1
  },
  "userdoc": {
    "kind": "user",
    "methods": {},
    "version": 1
  }
}