{
  "contractName": "PtnCoinTokenSale",
  "abi": [
    {
      "inputs": [
        {
          "internalType": "contract PtnCoinToken",
          "name": "_tokenContract",
          "type": "address"
        },
        {
          "internalType": "uint256",
          "name": "_tokenPrice",
          "type": "uint256"
        }
      ],
      "stateMutability": "nonpayable",
      "type": "constructor"
    },
    {
      "anonymous": false,
      "inputs": [
        {
          "indexed": false,
          "internalType": "address",
          "name": "_buyer",
          "type": "address"
        },
        {
          "indexed": false,
          "internalType": "uint256",
          "name": "_amount",
          "type": "uint256"
        }
      ],
      "name": "Sell",
      "type": "event"
    },
    {
      "inputs": [],
      "name": "cepTokenContract",
      "outputs": [
        {
          "internalType": "contract PtnCoinToken",
          "name": "",
          "type": "address"
        }
      ],
      "stateMutability": "view",
      "type": "function",
      "constant": true
    },
    {
      "inputs": [],
      "name": "tokenPrice",
      "outputs": [
        {
          "internalType": "uint256",
          "name": "",
          "type": "uint256"
        }
      ],
      "stateMutability": "view",
      "type": "function",
      "constant": true
    },
    {
      "inputs": [],
      "name": "tokensSold",
      "outputs": [
        {
          "internalType": "uint256",
          "name": "",
          "type": "uint256"
        }
      ],
      "stateMutability": "view",
      "type": "function",
      "constant": true
    },
    {
      "inputs": [
        {
          "internalType": "uint256",
          "name": "_numberOfTokens",
          "type": "uint256"
        }
      ],
      "name": "buyTokens",
      "outputs": [],
      "stateMutability": "payable",
      "type": "function",
      "payable": true
    },
    {
      "inputs": [],
      "name": "endSale",
      "outputs": [],
      "stateMutability": "nonpayable",
      "type": "function"
    }
  ],
  "bytecode": "0x608060405234801561001057600080fd5b50604051610a62380380610a628339818101604052810190610032919061016c565b336000806101000a81548173ffffffffffffffffffffffffffffffffffffffff021916908373ffffffffffffffffffffffffffffffffffffffff16021790555081600260006101000a81548173ffffffffffffffffffffffffffffffffffffffff021916908373ffffffffffffffffffffffffffffffffffffffff1602179055508060018190555050506101ac565b600080fd5b600073ffffffffffffffffffffffffffffffffffffffff82169050919050565b60006100f1826100c6565b9050919050565b6000610103826100e6565b9050919050565b610113816100f8565b811461011e57600080fd5b50565b6000815190506101308161010a565b92915050565b6000819050919050565b61014981610136565b811461015457600080fd5b50565b60008151905061016681610140565b92915050565b60008060408385031215610183576101826100c1565b5b600061019185828601610121565b92505060206101a285828601610157565b9150509250929050565b6108a7806101bb6000396000f3fe60806040526004361061004a5760003560e01c80633610724e1461004f578063380d831b1461006b578063518ab2a8146100825780637ff9b596146100ad578063da2e31eb146100d8575b600080fd5b61006960048036038101906100649190610535565b610103565b005b34801561007757600080fd5b506100806102d3565b005b34801561008e57600080fd5b50610097610491565b6040516100a49190610571565b60405180910390f35b3480156100b957600080fd5b506100c2610497565b6040516100cf9190610571565b60405180910390f35b3480156100e457600080fd5b506100ed61049d565b6040516100fa919061060b565b60405180910390f35b610122670de0b6b3a76400008261011a9190610684565b6001546104c3565b341461012d57600080fd5b80600260009054906101000a900473ffffffffffffffffffffffffffffffffffffffff1673ffffffffffffffffffffffffffffffffffffffff166370a08231306040518263ffffffff1660e01b815260040161018991906106d6565b602060405180830381865afa1580156101a6573d6000803e3d6000fd5b505050506040513d601f19601f820116820180604052508101906101ca9190610706565b10156101d557600080fd5b600260009054906101000a900473ffffffffffffffffffffffffffffffffffffffff1673ffffffffffffffffffffffffffffffffffffffff1663a9059cbb33836040518363ffffffff1660e01b8152600401610232929190610733565b6020604051808303816000875af1158015610251573d6000803e3d6000fd5b505050506040513d601f19601f820116820180604052508101906102759190610794565b61027e57600080fd5b806003600082825461029091906107c1565b925050819055507f5e5e995ce3133561afceaa51a9a154d5db228cd7525d34df5185582c18d3df0933826040516102c8929190610733565b60405180910390a150565b60008054906101000a900473ffffffffffffffffffffffffffffffffffffffff1673ffffffffffffffffffffffffffffffffffffffff163373ffffffffffffffffffffffffffffffffffffffff161461032b57600080fd5b600260009054906101000a900473ffffffffffffffffffffffffffffffffffffffff1673ffffffffffffffffffffffffffffffffffffffff1663a9059cbb60008054906101000a900473ffffffffffffffffffffffffffffffffffffffff16600260009054906101000a900473ffffffffffffffffffffffffffffffffffffffff1673ffffffffffffffffffffffffffffffffffffffff166370a08231306040518263ffffffff1660e01b81526004016103e591906106d6565b602060405180830381865afa158015610402573d6000803e3d6000fd5b505050506040513d601f19601f820116820180604052508101906104269190610706565b6040518363ffffffff1660e01b8152600401610443929190610733565b6020604051808303816000875af1158015610462573d6000803e3d6000fd5b505050506040513d601f19601f820116820180604052508101906104869190610794565b61048f57600080fd5b565b60035481565b60015481565b600260009054906101000a900473ffffffffffffffffffffffffffffffffffffffff1681565b6000808214806104eb5750828283856104dc9190610817565b9250826104e99190610684565b145b6104f457600080fd5b92915050565b600080fd5b6000819050919050565b610512816104ff565b811461051d57600080fd5b50565b60008135905061052f81610509565b92915050565b60006020828403121561054b5761054a6104fa565b5b600061055984828501610520565b91505092915050565b61056b816104ff565b82525050565b60006020820190506105866000830184610562565b92915050565b600073ffffffffffffffffffffffffffffffffffffffff82169050919050565b6000819050919050565b60006105d16105cc6105c78461058c565b6105ac565b61058c565b9050919050565b60006105e3826105b6565b9050919050565b60006105f5826105d8565b9050919050565b610605816105ea565b82525050565b600060208201905061062060008301846105fc565b92915050565b7f4e487b7100000000000000000000000000000000000000000000000000000000600052601260045260246000fd5b7f4e487b7100000000000000000000000000000000000000000000000000000000600052601160045260246000fd5b600061068f826104ff565b915061069a836104ff565b9250826106aa576106a9610626565b5b828204905092915050565b60006106c08261058c565b9050919050565b6106d0816106b5565b82525050565b60006020820190506106eb60008301846106c7565b92915050565b60008151905061070081610509565b92915050565b60006020828403121561071c5761071b6104fa565b5b600061072a848285016106f1565b91505092915050565b600060408201905061074860008301856106c7565b6107556020830184610562565b9392505050565b60008115159050919050565b6107718161075c565b811461077c57600080fd5b50565b60008151905061078e81610768565b92915050565b6000602082840312156107aa576107a96104fa565b5b60006107b88482850161077f565b91505092915050565b60006107cc826104ff565b91506107d7836104ff565b9250827fffffffffffffffffffffffffffffffffffffffffffffffffffffffffffffffff0382111561080c5761080b610655565b5b828201905092915050565b6000610822826104ff565b915061082d836104ff565b9250817fffffffffffffffffffffffffffffffffffffffffffffffffffffffffffffffff048311821515161561086657610865610655565b5b82820290509291505056fea26469706673582212209af27044fc300bbb4fba69eabd5d66719ca5b59789b2fe825a015411d511f72c64736f6c634300080e0033",
  "immutableReferences": {},
  "source": "// SPDX-License-Identifier: MIT\npragma solidity >=0.4.22 <0.9.0;\nimport \"./PtnCoinToken.sol\";\n\ncontract PtnCoinTokenSale {\n    address adminAddress;\n    uint256 public tokenPrice;\n    PtnCoinToken public cepTokenContract;\n    uint256 public tokensSold;\n\n    event Sell(address _buyer, uint256 _amount);\n\n    constructor(PtnCoinToken _tokenContract, uint256 _tokenPrice) {\n        adminAddress = msg.sender;\n        cepTokenContract = _tokenContract;\n        tokenPrice = _tokenPrice;\n    }\n\n    function multiply(uint256 x, uint256 y) internal pure returns (uint256 z) {\n        require(y == 0 || (z = x * y) / y == x); // TODO: ?\n    }\n\n    function buyTokens(uint256 _numberOfTokens) public payable {\n        require(msg.value == multiply(_numberOfTokens / (10**18), tokenPrice)); // checking ETH format also\n        require(cepTokenContract.balanceOf(address(this)) >= _numberOfTokens); //this => CepTokenSale's / address  refers to the address of the instance of the contract where the call is being made.\n        require(cepTokenContract.transfer(msg.sender, _numberOfTokens)); // msg.sender refers to the address where the contract is being called from.\n\n        tokensSold += _numberOfTokens;\n\n        emit Sell(msg.sender, _numberOfTokens);\n    }\n\n    function endSale() public {\n        require(msg.sender == adminAddress);\n        require(\n            cepTokenContract.transfer(\n                adminAddress,\n                cepTokenContract.balanceOf(address(this))\n            )\n        );\n\n        // address payable addr = payable(address(this));\n        // selfdestruct(addr);\n    }\n}\n",
  "sourcePath": "/Users/loctong/Desktop/Git/BlockChain/ptn-blockchain-erc20/ERC20TokenSale/contracts/PtnCoinTokenSale.sol",
  "compiler": {
    "name": "solc",
    "version": "0.8.14+commit.80d49f37.Emscripten.clang"
  },
  "schemaVersion": "3.4.7",
  "updatedAt": "2022-06-24T15:58:25.542Z",
  "networkType": "ethereum",
  "devdoc": {
    "kind": "dev",
    "methods": {},
    "version": 1
  },
  "userdoc": {
    "kind": "user",
    "methods": {},
    "version": 1
  }
}