{
  "contractName": "PtnCoinToken",
  "abi": [
    {
      "inputs": [
        {
          "internalType": "uint256",
          "name": "_initialAmount",
          "type": "uint256"
        },
        {
          "internalType": "uint8",
          "name": "_decimals",
          "type": "uint8"
        }
      ],
      "stateMutability": "nonpayable",
      "type": "constructor"
    },
    {
      "anonymous": false,
      "inputs": [
        {
          "indexed": true,
          "internalType": "address",
          "name": "_owner",
          "type": "address"
        },
        {
          "indexed": true,
          "internalType": "address",
          "name": "_spender",
          "type": "address"
        },
        {
          "indexed": false,
          "internalType": "uint256",
          "name": "_value",
          "type": "uint256"
        }
      ],
      "name": "Approval",
      "type": "event"
    },
    {
      "anonymous": false,
      "inputs": [
        {
          "indexed": true,
          "internalType": "address",
          "name": "_from",
          "type": "address"
        },
        {
          "indexed": true,
          "internalType": "address",
          "name": "_to",
          "type": "address"
        },
        {
          "indexed": false,
          "internalType": "uint256",
          "name": "_value",
          "type": "uint256"
        }
      ],
      "name": "Transfer",
      "type": "event"
    },
    {
      "inputs": [
        {
          "internalType": "address",
          "name": "",
          "type": "address"
        },
        {
          "internalType": "address",
          "name": "",
          "type": "address"
        }
      ],
      "name": "allowance",
      "outputs": [
        {
          "internalType": "uint256",
          "name": "",
          "type": "uint256"
        }
      ],
      "stateMutability": "view",
      "type": "function",
      "constant": true
    },
    {
      "inputs": [
        {
          "internalType": "address",
          "name": "",
          "type": "address"
        }
      ],
      "name": "balances",
      "outputs": [
        {
          "internalType": "uint256",
          "name": "",
          "type": "uint256"
        }
      ],
      "stateMutability": "view",
      "type": "function",
      "constant": true
    },
    {
      "inputs": [],
      "name": "decimals",
      "outputs": [
        {
          "internalType": "uint8",
          "name": "",
          "type": "uint8"
        }
      ],
      "stateMutability": "view",
      "type": "function",
      "constant": true
    },
    {
      "inputs": [],
      "name": "minter",
      "outputs": [
        {
          "internalType": "address",
          "name": "",
          "type": "address"
        }
      ],
      "stateMutability": "view",
      "type": "function",
      "constant": true
    },
    {
      "inputs": [],
      "name": "name",
      "outputs": [
        {
          "internalType": "string",
          "name": "",
          "type": "string"
        }
      ],
      "stateMutability": "view",
      "type": "function",
      "constant": true
    },
    {
      "inputs": [],
      "name": "standard",
      "outputs": [
        {
          "internalType": "string",
          "name": "",
          "type": "string"
        }
      ],
      "stateMutability": "view",
      "type": "function",
      "constant": true
    },
    {
      "inputs": [],
      "name": "symbol",
      "outputs": [
        {
          "internalType": "string",
          "name": "",
          "type": "string"
        }
      ],
      "stateMutability": "view",
      "type": "function",
      "constant": true
    },
    {
      "inputs": [],
      "name": "totalSupply",
      "outputs": [
        {
          "internalType": "uint256",
          "name": "",
          "type": "uint256"
        }
      ],
      "stateMutability": "view",
      "type": "function",
      "constant": true
    },
    {
      "inputs": [
        {
          "internalType": "address",
          "name": "_owner",
          "type": "address"
        }
      ],
      "name": "balanceOf",
      "outputs": [
        {
          "internalType": "uint256",
          "name": "balance",
          "type": "uint256"
        }
      ],
      "stateMutability": "view",
      "type": "function",
      "constant": true
    },
    {
      "inputs": [
        {
          "internalType": "address",
          "name": "_to",
          "type": "address"
        },
        {
          "internalType": "uint256",
          "name": "_value",
          "type": "uint256"
        }
      ],
      "name": "transfer",
      "outputs": [
        {
          "internalType": "bool",
          "name": "success",
          "type": "bool"
        }
      ],
      "stateMutability": "nonpayable",
      "type": "function"
    },
    {
      "inputs": [
        {
          "internalType": "address",
          "name": "_spender",
          "type": "address"
        },
        {
          "internalType": "uint256",
          "name": "_value",
          "type": "uint256"
        }
      ],
      "name": "approve",
      "outputs": [
        {
          "internalType": "bool",
          "name": "success",
          "type": "bool"
        }
      ],
      "stateMutability": "nonpayable",
      "type": "function"
    },
    {
      "inputs": [
        {
          "internalType": "address",
          "name": "_from",
          "type": "address"
        },
        {
          "internalType": "address",
          "name": "_to",
          "type": "address"
        },
        {
          "internalType": "uint256",
          "name": "_value",
          "type": "uint256"
        }
      ],
      "name": "transferFrom",
      "outputs": [
        {
          "internalType": "bool",
          "name": "success",
          "type": "bool"
        }
      ],
      "stateMutability": "nonpayable",
      "type": "function"
    }
  ],
  "bytecode": "0x60806040526040518060400160405280600881526020017f50544e20436f696e0000000000000000000000000000000000000000000000008152506002908051906020019062000051929190620001f2565b506040518060400160405280600381526020017f50544e0000000000000000000000000000000000000000000000000000000000815250600390805190602001906200009f929190620001f2565b506040518060400160405280600e81526020017f50544e20546f6b656e2076312e3000000000000000000000000000000000000081525060049080519060200190620000ed929190620001f2565b50348015620000fb57600080fd5b506040516200127e3803806200127e833981810160405281019062000121919062000320565b33600160006101000a81548173ffffffffffffffffffffffffffffffffffffffff021916908373ffffffffffffffffffffffffffffffffffffffff1602179055508160066000600160009054906101000a900473ffffffffffffffffffffffffffffffffffffffff1673ffffffffffffffffffffffffffffffffffffffff1673ffffffffffffffffffffffffffffffffffffffff168152602001908152602001600020819055508160008190555080600560006101000a81548160ff021916908360ff1602179055505050620003cb565b828054620002009062000396565b90600052602060002090601f01602090048101928262000224576000855562000270565b82601f106200023f57805160ff191683800117855562000270565b8280016001018555821562000270579182015b828111156200026f57825182559160200191906001019062000252565b5b5090506200027f919062000283565b5090565b5b808211156200029e57600081600090555060010162000284565b5090565b600080fd5b6000819050919050565b620002bc81620002a7565b8114620002c857600080fd5b50565b600081519050620002dc81620002b1565b92915050565b600060ff82169050919050565b620002fa81620002e2565b81146200030657600080fd5b50565b6000815190506200031a81620002ef565b92915050565b600080604083850312156200033a5762000339620002a2565b5b60006200034a85828601620002cb565b92505060206200035d8582860162000309565b9150509250929050565b7f4e487b7100000000000000000000000000000000000000000000000000000000600052602260045260246000fd5b60006002820490506001821680620003af57607f821691505b602082108103620003c557620003c462000367565b5b50919050565b610ea380620003db6000396000f3fe608060405234801561001057600080fd5b50600436106100b45760003560e01c8063313ce56711610071578063313ce567146101a35780635a3b7e42146101c157806370a08231146101df57806395d89b411461020f578063a9059cbb1461022d578063dd62ed3e1461025d576100b4565b806306fdde03146100b957806307546172146100d7578063095ea7b3146100f557806318160ddd1461012557806323b872dd1461014357806327e235e314610173575b600080fd5b6100c161028d565b6040516100ce9190610ad8565b60405180910390f35b6100df61031b565b6040516100ec9190610b3b565b60405180910390f35b61010f600480360381019061010a9190610bbd565b610341565b60405161011c9190610c18565b60405180910390f35b61012d610455565b60405161013a9190610c42565b60405180910390f35b61015d60048036038101906101589190610c5d565b61045b565b60405161016a9190610c18565b60405180910390f35b61018d60048036038101906101889190610cb0565b6106e8565b60405161019a9190610c42565b60405180910390f35b6101ab610700565b6040516101b89190610cf9565b60405180910390f35b6101c9610713565b6040516101d69190610ad8565b60405180910390f35b6101f960048036038101906101f49190610cb0565b6107a1565b6040516102069190610c42565b60405180910390f35b6102176107ea565b6040516102249190610ad8565b60405180910390f35b61024760048036038101906102429190610bbd565b610878565b6040516102549190610c18565b60405180910390f35b61027760048036038101906102729190610d14565b610a1a565b6040516102849190610c42565b60405180910390f35b6002805461029a90610d83565b80601f01602080910402602001604051908101604052809291908181526020018280546102c690610d83565b80156103135780601f106102e857610100808354040283529160200191610313565b820191906000526020600020905b8154815290600101906020018083116102f657829003601f168201915b505050505081565b600160009054906101000a900473ffffffffffffffffffffffffffffffffffffffff1681565b600081600760003373ffffffffffffffffffffffffffffffffffffffff1673ffffffffffffffffffffffffffffffffffffffff16815260200190815260200160002060008573ffffffffffffffffffffffffffffffffffffffff1673ffffffffffffffffffffffffffffffffffffffff168152602001908152602001600020819055508273ffffffffffffffffffffffffffffffffffffffff16600160009054906101000a900473ffffffffffffffffffffffffffffffffffffffff1673ffffffffffffffffffffffffffffffffffffffff167f8c5be1e5ebec7d5bd14f71427d1e84f3dd0314c0f7b2291e5b200ac8c7c3b925846040516104439190610c42565b60405180910390a36001905092915050565b60005481565b6000803390508261046b866107a1565b101561047657600080fd5b82600760008773ffffffffffffffffffffffffffffffffffffffff1673ffffffffffffffffffffffffffffffffffffffff16815260200190815260200160002060008373ffffffffffffffffffffffffffffffffffffffff1673ffffffffffffffffffffffffffffffffffffffff1681526020019081526020016000205410156104ff57600080fd5b600073ffffffffffffffffffffffffffffffffffffffff168473ffffffffffffffffffffffffffffffffffffffff160361053857600080fd5b82600660008773ffffffffffffffffffffffffffffffffffffffff1673ffffffffffffffffffffffffffffffffffffffff16815260200190815260200160002060008282546105879190610de3565b9250508190555082600660008673ffffffffffffffffffffffffffffffffffffffff1673ffffffffffffffffffffffffffffffffffffffff16815260200190815260200160002060008282546105dd9190610e17565b9250508190555082600760008773ffffffffffffffffffffffffffffffffffffffff1673ffffffffffffffffffffffffffffffffffffffff16815260200190815260200160002060008373ffffffffffffffffffffffffffffffffffffffff1673ffffffffffffffffffffffffffffffffffffffff16815260200190815260200160002060008282546106709190610de3565b925050819055508373ffffffffffffffffffffffffffffffffffffffff168573ffffffffffffffffffffffffffffffffffffffff167fddf252ad1be2c89b69c2b068fc378daa952ba7f163c4a11628f55a4df523b3ef856040516106d49190610c42565b60405180910390a360019150509392505050565b60066020528060005260406000206000915090505481565b600560009054906101000a900460ff1681565b6004805461072090610d83565b80601f016020809104026020016040519081016040528092919081815260200182805461074c90610d83565b80156107995780601f1061076e57610100808354040283529160200191610799565b820191906000526020600020905b81548152906001019060200180831161077c57829003601f168201915b505050505081565b6000600660008373ffffffffffffffffffffffffffffffffffffffff1673ffffffffffffffffffffffffffffffffffffffff168152602001908152602001600020549050919050565b600380546107f790610d83565b80601f016020809104026020016040519081016040528092919081815260200182805461082390610d83565b80156108705780601f1061084557610100808354040283529160200191610870565b820191906000526020600020905b81548152906001019060200180831161085357829003601f168201915b505050505081565b600081600660003373ffffffffffffffffffffffffffffffffffffffff1673ffffffffffffffffffffffffffffffffffffffff1681526020019081526020016000205410156108c657600080fd5b600073ffffffffffffffffffffffffffffffffffffffff168373ffffffffffffffffffffffffffffffffffffffff16036108ff57600080fd5b81600660003373ffffffffffffffffffffffffffffffffffffffff1673ffffffffffffffffffffffffffffffffffffffff168152602001908152602001600020600082825461094e9190610de3565b9250508190555081600660008573ffffffffffffffffffffffffffffffffffffffff1673ffffffffffffffffffffffffffffffffffffffff16815260200190815260200160002060008282546109a49190610e17565b925050819055508273ffffffffffffffffffffffffffffffffffffffff163373ffffffffffffffffffffffffffffffffffffffff167fddf252ad1be2c89b69c2b068fc378daa952ba7f163c4a11628f55a4df523b3ef84604051610a089190610c42565b60405180910390a36001905092915050565b6007602052816000526040600020602052806000526040600020600091509150505481565b600081519050919050565b600082825260208201905092915050565b60005b83811015610a79578082015181840152602081019050610a5e565b83811115610a88576000848401525b50505050565b6000601f19601f8301169050919050565b6000610aaa82610a3f565b610ab48185610a4a565b9350610ac4818560208601610a5b565b610acd81610a8e565b840191505092915050565b60006020820190508181036000830152610af28184610a9f565b905092915050565b600073ffffffffffffffffffffffffffffffffffffffff82169050919050565b6000610b2582610afa565b9050919050565b610b3581610b1a565b82525050565b6000602082019050610b506000830184610b2c565b92915050565b600080fd5b610b6481610b1a565b8114610b6f57600080fd5b50565b600081359050610b8181610b5b565b92915050565b6000819050919050565b610b9a81610b87565b8114610ba557600080fd5b50565b600081359050610bb781610b91565b92915050565b60008060408385031215610bd457610bd3610b56565b5b6000610be285828601610b72565b9250506020610bf385828601610ba8565b9150509250929050565b60008115159050919050565b610c1281610bfd565b82525050565b6000602082019050610c2d6000830184610c09565b92915050565b610c3c81610b87565b82525050565b6000602082019050610c576000830184610c33565b92915050565b600080600060608486031215610c7657610c75610b56565b5b6000610c8486828701610b72565b9350506020610c9586828701610b72565b9250506040610ca686828701610ba8565b9150509250925092565b600060208284031215610cc657610cc5610b56565b5b6000610cd484828501610b72565b91505092915050565b600060ff82169050919050565b610cf381610cdd565b82525050565b6000602082019050610d0e6000830184610cea565b92915050565b60008060408385031215610d2b57610d2a610b56565b5b6000610d3985828601610b72565b9250506020610d4a85828601610b72565b9150509250929050565b7f4e487b7100000000000000000000000000000000000000000000000000000000600052602260045260246000fd5b60006002820490506001821680610d9b57607f821691505b602082108103610dae57610dad610d54565b5b50919050565b7f4e487b7100000000000000000000000000000000000000000000000000000000600052601160045260246000fd5b6000610dee82610b87565b9150610df983610b87565b925082821015610e0c57610e0b610db4565b5b828203905092915050565b6000610e2282610b87565b9150610e2d83610b87565b9250827fffffffffffffffffffffffffffffffffffffffffffffffffffffffffffffffff03821115610e6257610e61610db4565b5b82820190509291505056fea26469706673582212202e58a0aca1173e150403b5f79ec8a58195f3bcc73eaa92a26811f1f1da3d7bd364736f6c634300080e0033",
  "immutableReferences": {},
  "source": "// SPDX-License-Identifier: MIT\npragma solidity >=0.4.22 <0.9.0;\nimport \"./EIP20Interface.sol\";\n\ncontract PtnCoinToken is EIP20Interface {\n    uint256 public totalSupply;\n    address public minter;\n\n    string public override name = \"PTN Coin\";\n    string public override symbol = \"PTN\";\n    string public standard = \"PTN Token v1.0\";\n    uint8 public override decimals; // instead of floating point\n\n    mapping(address => uint256) public balances;\n    mapping(address => mapping(address => uint256)) public override allowance;\n\n    constructor(uint256 _initialAmount, uint8 _decimals) {\n        minter = msg.sender; // who deployed the contract\n        balances[minter] = _initialAmount;\n        totalSupply = _initialAmount;\n        decimals = _decimals;\n    }\n\n    function balanceOf(address _owner)\n        public\n        view\n        override\n        returns (uint256 balance)\n    {\n        return balances[_owner];\n    }\n\n    function transfer(address _to, uint256 _value)\n        public\n        override\n        returns (bool success)\n    {\n        require(balances[msg.sender] >= _value);\n        require(_to != address(0)); // 0x00000\n\n        balances[msg.sender] -= _value;\n        balances[_to] += _value;\n\n        emit Transfer(msg.sender, _to, _value);\n\n        return true;\n    }\n\n    function approve(address _spender, uint256 _value)\n        public\n        override\n        returns (bool success)\n    {\n        //allowance\n        allowance[msg.sender][_spender] = _value;\n\n        emit Approval(minter, _spender, _value);\n\n        return true;\n    }\n\n    // Delegated Transfer\n    function transferFrom(\n        address _from,\n        address _to,\n        uint256 _value\n    ) public override returns (bool success) {\n        address spender = msg.sender;\n\n        require(balanceOf(_from) >= _value); // throw and revert\n        require(allowance[_from][spender] >= _value);\n        require(_to != address(0));\n\n        balances[_from] -= _value;\n        balances[_to] += _value;\n\n        allowance[_from][spender] -= _value;\n\n        emit Transfer(_from, _to, _value);\n\n        return true;\n    }\n}\n",
  "sourcePath": "/Users/loctong/Desktop/Git/BlockChain/ptn-blockchain-erc20/ERC20TokenSale/contracts/PtnCoinToken.sol",
  "compiler": {
    "name": "solc",
    "version": "0.8.14+commit.80d49f37.Emscripten.clang"
  },
  "schemaVersion": "3.4.7",
  "updatedAt": "2022-06-24T15:58:25.539Z",
  "networkType": "ethereum",
  "devdoc": {
    "kind": "dev",
    "methods": {},
    "version": 1
  },
  "userdoc": {
    "kind": "user",
    "methods": {},
    "version": 1
  }
}